{
  "_format": "hh-sol-artifact-1",
  "contractName": "BlockchainGuardianGame",
  "sourceName": "contracts/BlockchainGuardianGame.sol",
  "abi": [
    {
      "inputs": [],
      "stateMutability": "nonpayable",
      "type": "constructor"
    },
    {
      "inputs": [],
      "name": "ERC721EnumerableForbiddenBatchMint",
      "type": "error"
    },
    {
      "inputs": [
        {
          "internalType": "address",
          "name": "sender",
          "type": "address"
        },
        {
          "internalType": "uint256",
          "name": "tokenId",
          "type": "uint256"
        },
        {
          "internalType": "address",
          "name": "owner",
          "type": "address"
        }
      ],
      "name": "ERC721IncorrectOwner",
      "type": "error"
    },
    {
      "inputs": [
        {
          "internalType": "address",
          "name": "operator",
          "type": "address"
        },
        {
          "internalType": "uint256",
          "name": "tokenId",
          "type": "uint256"
        }
      ],
      "name": "ERC721InsufficientApproval",
      "type": "error"
    },
    {
      "inputs": [
        {
          "internalType": "address",
          "name": "approver",
          "type": "address"
        }
      ],
      "name": "ERC721InvalidApprover",
      "type": "error"
    },
    {
      "inputs": [
        {
          "internalType": "address",
          "name": "operator",
          "type": "address"
        }
      ],
      "name": "ERC721InvalidOperator",
      "type": "error"
    },
    {
      "inputs": [
        {
          "internalType": "address",
          "name": "owner",
          "type": "address"
        }
      ],
      "name": "ERC721InvalidOwner",
      "type": "error"
    },
    {
      "inputs": [
        {
          "internalType": "address",
          "name": "receiver",
          "type": "address"
        }
      ],
      "name": "ERC721InvalidReceiver",
      "type": "error"
    },
    {
      "inputs": [
        {
          "internalType": "address",
          "name": "sender",
          "type": "address"
        }
      ],
      "name": "ERC721InvalidSender",
      "type": "error"
    },
    {
      "inputs": [
        {
          "internalType": "uint256",
          "name": "tokenId",
          "type": "uint256"
        }
      ],
      "name": "ERC721NonexistentToken",
      "type": "error"
    },
    {
      "inputs": [
        {
          "internalType": "address",
          "name": "owner",
          "type": "address"
        },
        {
          "internalType": "uint256",
          "name": "index",
          "type": "uint256"
        }
      ],
      "name": "ERC721OutOfBoundsIndex",
      "type": "error"
    },
    {
      "inputs": [
        {
          "internalType": "address",
          "name": "owner",
          "type": "address"
        }
      ],
      "name": "OwnableInvalidOwner",
      "type": "error"
    },
    {
      "inputs": [
        {
          "internalType": "address",
          "name": "account",
          "type": "address"
        }
      ],
      "name": "OwnableUnauthorizedAccount",
      "type": "error"
    },
    {
      "anonymous": false,
      "inputs": [
        {
          "indexed": true,
          "internalType": "address",
          "name": "owner",
          "type": "address"
        },
        {
          "indexed": true,
          "internalType": "address",
          "name": "approved",
          "type": "address"
        },
        {
          "indexed": true,
          "internalType": "uint256",
          "name": "tokenId",
          "type": "uint256"
        }
      ],
      "name": "Approval",
      "type": "event"
    },
    {
      "anonymous": false,
      "inputs": [
        {
          "indexed": true,
          "internalType": "address",
          "name": "owner",
          "type": "address"
        },
        {
          "indexed": true,
          "internalType": "address",
          "name": "operator",
          "type": "address"
        },
        {
          "indexed": false,
          "internalType": "bool",
          "name": "approved",
          "type": "bool"
        }
      ],
      "name": "ApprovalForAll",
      "type": "event"
    },
    {
      "anonymous": false,
      "inputs": [
        {
          "indexed": false,
          "internalType": "address",
          "name": "player",
          "type": "address"
        },
        {
          "indexed": false,
          "internalType": "uint256",
          "name": "levelsCompleted",
          "type": "uint256"
        },
        {
          "indexed": false,
          "internalType": "uint256",
          "name": "securityPoints",
          "type": "uint256"
        }
      ],
      "name": "LeaderboardUpdated",
      "type": "event"
    },
    {
      "anonymous": false,
      "inputs": [
        {
          "indexed": false,
          "internalType": "address",
          "name": "player",
          "type": "address"
        },
        {
          "indexed": false,
          "internalType": "uint256",
          "name": "level",
          "type": "uint256"
        },
        {
          "indexed": false,
          "internalType": "uint256",
          "name": "gasUsed",
          "type": "uint256"
        }
      ],
      "name": "LevelCompleted",
      "type": "event"
    },
    {
      "anonymous": false,
      "inputs": [
        {
          "indexed": false,
          "internalType": "address",
          "name": "player",
          "type": "address"
        },
        {
          "indexed": false,
          "internalType": "uint256",
          "name": "tokenId",
          "type": "uint256"
        },
        {
          "indexed": false,
          "internalType": "uint256",
          "name": "level",
          "type": "uint256"
        }
      ],
      "name": "NFTMinted",
      "type": "event"
    },
    {
      "anonymous": false,
      "inputs": [
        {
          "indexed": true,
          "internalType": "address",
          "name": "previousOwner",
          "type": "address"
        },
        {
          "indexed": true,
          "internalType": "address",
          "name": "newOwner",
          "type": "address"
        }
      ],
      "name": "OwnershipTransferred",
      "type": "event"
    },
    {
      "anonymous": false,
      "inputs": [
        {
          "indexed": true,
          "internalType": "address",
          "name": "from",
          "type": "address"
        },
        {
          "indexed": true,
          "internalType": "address",
          "name": "to",
          "type": "address"
        },
        {
          "indexed": true,
          "internalType": "uint256",
          "name": "tokenId",
          "type": "uint256"
        }
      ],
      "name": "Transfer",
      "type": "event"
    },
    {
      "inputs": [
        {
          "internalType": "address",
          "name": "to",
          "type": "address"
        },
        {
          "internalType": "uint256",
          "name": "tokenId",
          "type": "uint256"
        }
      ],
      "name": "approve",
      "outputs": [],
      "stateMutability": "nonpayable",
      "type": "function"
    },
    {
      "inputs": [
        {
          "internalType": "address",
          "name": "owner",
          "type": "address"
        }
      ],
      "name": "balanceOf",
      "outputs": [
        {
          "internalType": "uint256",
          "name": "",
          "type": "uint256"
        }
      ],
      "stateMutability": "view",
      "type": "function"
    },
    {
      "inputs": [
        {
          "internalType": "address",
          "name": "player",
          "type": "address"
        },
        {
          "internalType": "uint256",
          "name": "level",
          "type": "uint256"
        }
      ],
      "name": "completeLevel",
      "outputs": [],
      "stateMutability": "nonpayable",
      "type": "function"
    },
    {
      "inputs": [
        {
          "internalType": "uint256",
          "name": "tokenId",
          "type": "uint256"
        }
      ],
      "name": "getApproved",
      "outputs": [
        {
          "internalType": "address",
          "name": "",
          "type": "address"
        }
      ],
      "stateMutability": "view",
      "type": "function"
    },
    {
      "inputs": [
        {
          "internalType": "uint256",
          "name": "count",
          "type": "uint256"
        }
      ],
      "name": "getTopPlayers",
      "outputs": [
        {
          "components": [
            {
              "internalType": "address",
              "name": "wallet",
              "type": "address"
            },
            {
              "internalType": "uint256",
              "name": "levelsCompleted",
              "type": "uint256"
            },
            {
              "internalType": "uint256",
              "name": "securityPoints",
              "type": "uint256"
            },
            {
              "internalType": "uint256",
              "name": "totalGasUsed",
              "type": "uint256"
            },
            {
              "internalType": "uint256",
              "name": "lastUpdate",
              "type": "uint256"
            }
          ],
          "internalType": "struct BlockchainGuardianGame.PlayerScore[]",
          "name": "",
          "type": "tuple[]"
        }
      ],
      "stateMutability": "view",
      "type": "function"
    },
    {
      "inputs": [
        {
          "internalType": "address",
          "name": "owner",
          "type": "address"
        },
        {
          "internalType": "address",
          "name": "operator",
          "type": "address"
        }
      ],
      "name": "isApprovedForAll",
      "outputs": [
        {
          "internalType": "bool",
          "name": "",
          "type": "bool"
        }
      ],
      "stateMutability": "view",
      "type": "function"
    },
    {
      "inputs": [
        {
          "internalType": "address",
          "name": "player",
          "type": "address"
        }
      ],
      "name": "isGenesisGuardian",
      "outputs": [
        {
          "internalType": "bool",
          "name": "",
          "type": "bool"
        }
      ],
      "stateMutability": "view",
      "type": "function"
    },
    {
      "inputs": [
        {
          "internalType": "uint256",
          "name": "",
          "type": "uint256"
        }
      ],
      "name": "leaderboard",
      "outputs": [
        {
          "internalType": "address",
          "name": "wallet",
          "type": "address"
        },
        {
          "internalType": "uint256",
          "name": "levelsCompleted",
          "type": "uint256"
        },
        {
          "internalType": "uint256",
          "name": "securityPoints",
          "type": "uint256"
        },
        {
          "internalType": "uint256",
          "name": "totalGasUsed",
          "type": "uint256"
        },
        {
          "internalType": "uint256",
          "name": "lastUpdate",
          "type": "uint256"
        }
      ],
      "stateMutability": "view",
      "type": "function"
    },
    {
      "inputs": [],
      "name": "leaderboardInitialized",
      "outputs": [
        {
          "internalType": "bool",
          "name": "",
          "type": "bool"
        }
      ],
      "stateMutability": "view",
      "type": "function"
    },
    {
      "inputs": [
        {
          "internalType": "uint256",
          "name": "",
          "type": "uint256"
        }
      ],
      "name": "levelContracts",
      "outputs": [
        {
          "internalType": "address",
          "name": "",
          "type": "address"
        }
      ],
      "stateMutability": "view",
      "type": "function"
    },
    {
      "inputs": [],
      "name": "name",
      "outputs": [
        {
          "internalType": "string",
          "name": "",
          "type": "string"
        }
      ],
      "stateMutability": "view",
      "type": "function"
    },
    {
      "inputs": [],
      "name": "owner",
      "outputs": [
        {
          "internalType": "address",
          "name": "",
          "type": "address"
        }
      ],
      "stateMutability": "view",
      "type": "function"
    },
    {
      "inputs": [
        {
          "internalType": "uint256",
          "name": "tokenId",
          "type": "uint256"
        }
      ],
      "name": "ownerOf",
      "outputs": [
        {
          "internalType": "address",
          "name": "",
          "type": "address"
        }
      ],
      "stateMutability": "view",
      "type": "function"
    },
    {
      "inputs": [
        {
          "internalType": "address",
          "name": "",
          "type": "address"
        }
      ],
      "name": "playerLevel",
      "outputs": [
        {
          "internalType": "uint256",
          "name": "",
          "type": "uint256"
        }
      ],
      "stateMutability": "view",
      "type": "function"
    },
    {
      "inputs": [
        {
          "internalType": "address",
          "name": "",
          "type": "address"
        }
      ],
      "name": "playerToLeaderboardIndex",
      "outputs": [
        {
          "internalType": "uint256",
          "name": "",
          "type": "uint256"
        }
      ],
      "stateMutability": "view",
      "type": "function"
    },
    {
      "inputs": [],
      "name": "renounceOwnership",
      "outputs": [],
      "stateMutability": "nonpayable",
      "type": "function"
    },
    {
      "inputs": [
        {
          "internalType": "address",
          "name": "from",
          "type": "address"
        },
        {
          "internalType": "address",
          "name": "to",
          "type": "address"
        },
        {
          "internalType": "uint256",
          "name": "tokenId",
          "type": "uint256"
        }
      ],
      "name": "safeTransferFrom",
      "outputs": [],
      "stateMutability": "nonpayable",
      "type": "function"
    },
    {
      "inputs": [
        {
          "internalType": "address",
          "name": "from",
          "type": "address"
        },
        {
          "internalType": "address",
          "name": "to",
          "type": "address"
        },
        {
          "internalType": "uint256",
          "name": "tokenId",
          "type": "uint256"
        },
        {
          "internalType": "bytes",
          "name": "data",
          "type": "bytes"
        }
      ],
      "name": "safeTransferFrom",
      "outputs": [],
      "stateMutability": "nonpayable",
      "type": "function"
    },
    {
      "inputs": [
        {
          "internalType": "address",
          "name": "",
          "type": "address"
        }
      ],
      "name": "securityPoints",
      "outputs": [
        {
          "internalType": "uint256",
          "name": "",
          "type": "uint256"
        }
      ],
      "stateMutability": "view",
      "type": "function"
    },
    {
      "inputs": [
        {
          "internalType": "address",
          "name": "operator",
          "type": "address"
        },
        {
          "internalType": "bool",
          "name": "approved",
          "type": "bool"
        }
      ],
      "name": "setApprovalForAll",
      "outputs": [],
      "stateMutability": "nonpayable",
      "type": "function"
    },
    {
      "inputs": [
        {
          "internalType": "uint256",
          "name": "level",
          "type": "uint256"
        },
        {
          "internalType": "address",
          "name": "contractAddress",
          "type": "address"
        }
      ],
      "name": "setLevelContract",
      "outputs": [],
      "stateMutability": "nonpayable",
      "type": "function"
    },
    {
      "inputs": [
        {
          "internalType": "bytes4",
          "name": "interfaceId",
          "type": "bytes4"
        }
      ],
      "name": "supportsInterface",
      "outputs": [
        {
          "internalType": "bool",
          "name": "",
          "type": "bool"
        }
      ],
      "stateMutability": "view",
      "type": "function"
    },
    {
      "inputs": [],
      "name": "symbol",
      "outputs": [
        {
          "internalType": "string",
          "name": "",
          "type": "string"
        }
      ],
      "stateMutability": "view",
      "type": "function"
    },
    {
      "inputs": [
        {
          "internalType": "uint256",
          "name": "index",
          "type": "uint256"
        }
      ],
      "name": "tokenByIndex",
      "outputs": [
        {
          "internalType": "uint256",
          "name": "",
          "type": "uint256"
        }
      ],
      "stateMutability": "view",
      "type": "function"
    },
    {
      "inputs": [
        {
          "internalType": "address",
          "name": "owner",
          "type": "address"
        },
        {
          "internalType": "uint256",
          "name": "index",
          "type": "uint256"
        }
      ],
      "name": "tokenOfOwnerByIndex",
      "outputs": [
        {
          "internalType": "uint256",
          "name": "",
          "type": "uint256"
        }
      ],
      "stateMutability": "view",
      "type": "function"
    },
    {
      "inputs": [
        {
          "internalType": "uint256",
          "name": "tokenId",
          "type": "uint256"
        }
      ],
      "name": "tokenURI",
      "outputs": [
        {
          "internalType": "string",
          "name": "",
          "type": "string"
        }
      ],
      "stateMutability": "view",
      "type": "function"
    },
    {
      "inputs": [
        {
          "internalType": "address",
          "name": "",
          "type": "address"
        }
      ],
      "name": "totalGasUsed",
      "outputs": [
        {
          "internalType": "uint256",
          "name": "",
          "type": "uint256"
        }
      ],
      "stateMutability": "view",
      "type": "function"
    },
    {
      "inputs": [],
      "name": "totalLevels",
      "outputs": [
        {
          "internalType": "uint256",
          "name": "",
          "type": "uint256"
        }
      ],
      "stateMutability": "view",
      "type": "function"
    },
    {
      "inputs": [],
      "name": "totalSupply",
      "outputs": [
        {
          "internalType": "uint256",
          "name": "",
          "type": "uint256"
        }
      ],
      "stateMutability": "view",
      "type": "function"
    },
    {
      "inputs": [
        {
          "internalType": "address",
          "name": "from",
          "type": "address"
        },
        {
          "internalType": "address",
          "name": "to",
          "type": "address"
        },
        {
          "internalType": "uint256",
          "name": "tokenId",
          "type": "uint256"
        }
      ],
      "name": "transferFrom",
      "outputs": [],
      "stateMutability": "nonpayable",
      "type": "function"
    },
    {
      "inputs": [
        {
          "internalType": "address",
          "name": "newOwner",
          "type": "address"
        }
      ],
      "name": "transferOwnership",
      "outputs": [],
      "stateMutability": "nonpayable",
      "type": "function"
    },
    {
      "inputs": [
        {
          "internalType": "address",
          "name": "player",
          "type": "address"
        }
      ],
      "name": "updateLeaderboard",
      "outputs": [],
      "stateMutability": "nonpayable",
      "type": "function"
    }
  ],
  "bytecode": "0x6080604052600a60105534801561001557600080fd5b50336040518060400160405280601381526020017f426c6f636b636861696e20477561726469616e000000000000000000000000008152506040518060400160405280600381526020017f42434700000000000000000000000000000000000000000000000000000000008152508160009081610092919061045d565b5080600190816100a2919061045d565b505050600073ffffffffffffffffffffffffffffffffffffffff168173ffffffffffffffffffffffffffffffffffffffff16036101175760006040517f1e4fbdf700000000000000000000000000000000000000000000000000000000815260040161010e9190610570565b60405180910390fd5b6101268161014760201b60201c565b506001601360006101000a81548160ff02191690831515021790555061058b565b6000600a60009054906101000a900473ffffffffffffffffffffffffffffffffffffffff16905081600a60006101000a81548173ffffffffffffffffffffffffffffffffffffffff021916908373ffffffffffffffffffffffffffffffffffffffff1602179055508173ffffffffffffffffffffffffffffffffffffffff168173ffffffffffffffffffffffffffffffffffffffff167f8be0079c531659141344cd1fd0a4f28419497f9722a3daafe3b4186f6b6457e060405160405180910390a35050565b600081519050919050565b7f4e487b7100000000000000000000000000000000000000000000000000000000600052604160045260246000fd5b7f4e487b7100000000000000000000000000000000000000000000000000000000600052602260045260246000fd5b6000600282049050600182168061028e57607f821691505b6020821081036102a1576102a0610247565b5b50919050565b60008190508160005260206000209050919050565b60006020601f8301049050919050565b600082821b905092915050565b6000600883026103097fffffffffffffffffffffffffffffffffffffffffffffffffffffffffffffffff826102cc565b61031386836102cc565b95508019841693508086168417925050509392505050565b6000819050919050565b6000819050919050565b600061035a6103556103508461032b565b610335565b61032b565b9050919050565b6000819050919050565b6103748361033f565b61038861038082610361565b8484546102d9565b825550505050565b600090565b61039d610390565b6103a881848461036b565b505050565b5b818110156103cc576103c1600082610395565b6001810190506103ae565b5050565b601f821115610411576103e2816102a7565b6103eb846102bc565b810160208510156103fa578190505b61040e610406856102bc565b8301826103ad565b50505b505050565b600082821c905092915050565b600061043460001984600802610416565b1980831691505092915050565b600061044d8383610423565b9150826002028217905092915050565b6104668261020d565b67ffffffffffffffff81111561047f5761047e610218565b5b6104898254610276565b6104948282856103d0565b600060209050601f8311600181146104c757600084156104b5578287015190505b6104bf8582610441565b865550610527565b601f1984166104d5866102a7565b60005b828110156104fd578489015182556001820191506020850194506020810190506104d8565b8683101561051a5784890151610516601f891682610423565b8355505b6001600288020188555050505b505050505050565b600073ffffffffffffffffffffffffffffffffffffffff82169050919050565b600061055a8261052f565b9050919050565b61056a8161054f565b82525050565b60006020820190506105856000830184610561565b92915050565b613d6c8061059a6000396000f3fe608060405234801561001057600080fd5b50600436106101f05760003560e01c80636352211e1161010f578063b9a23f62116100a2578063d916628a11610071578063d916628a1461061b578063e7d2b5d214610637578063e985e9c514610667578063f2fde38b14610697576101f0565b8063b9a23f6214610557578063ba3c006714610587578063bf368399146105b7578063c87b56dd146105eb576101f0565b80638da5cb5b116100de5780638da5cb5b146104e357806395d89b4114610501578063a22cb4651461051f578063b88d4fde1461053b576101f0565b80636352211e1461044957806370a0823114610479578063715018a6146104a95780638819c08c146104b3576101f0565b806318160ddd116101875780632f745c59116101565780632f745c591461039d57806334c80283146103cd57806342842e0e146103fd5780634f6ccce714610419576101f0565b806318160ddd146103155780631f5780311461033357806323b872dd1461035157806327fffdec1461036d576101f0565b806310d8678b116101c357806310d8678b1461028f578063116978f9146102ad57806314c84f3a146102c957806314d76acd146102f9576101f0565b806301ffc9a7146101f557806306fdde0314610225578063081812fc14610243578063095ea7b314610273575b600080fd5b61020f600480360381019061020a9190613167565b6106b3565b60405161021c91906131af565b60405180910390f35b61022d61072d565b60405161023a919061325a565b60405180910390f35b61025d600480360381019061025891906132b2565b6107bf565b60405161026a9190613320565b60405180910390f35b61028d60048036038101906102889190613367565b6107db565b005b6102976107f1565b6040516102a491906131af565b60405180910390f35b6102c760048036038101906102c29190613367565b610804565b005b6102e360048036038101906102de91906133a7565b610ad6565b6040516102f091906133e3565b60405180910390f35b610313600480360381019061030e91906133fe565b610aee565b005b61031d610b9d565b60405161032a91906133e3565b60405180910390f35b61033b610baa565b60405161034891906133e3565b60405180910390f35b61036b6004803603810190610366919061343e565b610bb0565b005b610387600480360381019061038291906133a7565b610cb2565b60405161039491906133e3565b60405180910390f35b6103b760048036038101906103b29190613367565b610cca565b6040516103c491906133e3565b60405180910390f35b6103e760048036038101906103e291906132b2565b610d73565b6040516103f49190613320565b60405180910390f35b6104176004803603810190610412919061343e565b610da6565b005b610433600480360381019061042e91906132b2565b610dc6565b60405161044091906133e3565b60405180910390f35b610463600480360381019061045e91906132b2565b610e3c565b6040516104709190613320565b60405180910390f35b610493600480360381019061048e91906133a7565b610e4e565b6040516104a091906133e3565b60405180910390f35b6104b1610f08565b005b6104cd60048036038101906104c891906133a7565b610f1c565b6040516104da91906131af565b60405180910390f35b6104eb610f69565b6040516104f89190613320565b60405180910390f35b610509610f93565b604051610516919061325a565b60405180910390f35b610539600480360381019061053491906134bd565b611025565b005b61055560048036038101906105509190613632565b61103b565b005b610571600480360381019061056c91906133a7565b611060565b60405161057e91906133e3565b60405180910390f35b6105a1600480360381019061059c91906132b2565b611078565b6040516105ae91906137ea565b60405180910390f35b6105d160048036038101906105cc91906132b2565b6111db565b6040516105e295949392919061380c565b60405180910390f35b610605600480360381019061060091906132b2565b611241565b604051610612919061325a565b60405180910390f35b610635600480360381019061063091906133a7565b6112aa565b005b610651600480360381019061064c91906133a7565b611725565b60405161065e91906133e3565b60405180910390f35b610681600480360381019061067c919061385f565b61173d565b60405161068e91906131af565b60405180910390f35b6106b160048036038101906106ac91906133a7565b6117d1565b005b60007f780e9d63000000000000000000000000000000000000000000000000000000007bffffffffffffffffffffffffffffffffffffffffffffffffffffffff1916827bffffffffffffffffffffffffffffffffffffffffffffffffffffffff19161480610726575061072582611857565b5b9050919050565b60606000805461073c906138ce565b80601f0160208091040260200160405190810160405280929190818152602001828054610768906138ce565b80156107b55780601f1061078a576101008083540402835291602001916107b5565b820191906000526020600020905b81548152906001019060200180831161079857829003601f168201915b5050505050905090565b60006107ca82611939565b506107d4826119c1565b9050919050565b6107ed82826107e86119fe565b611a06565b5050565b601360009054906101000a900460ff1681565b600f600082815260200190815260200160002060009054906101000a900473ffffffffffffffffffffffffffffffffffffffff1673ffffffffffffffffffffffffffffffffffffffff163373ffffffffffffffffffffffffffffffffffffffff16146108a5576040517f08c379a000000000000000000000000000000000000000000000000000000000815260040161089c9061394b565b60405180910390fd5b6000811180156108b757506010548111155b6108f6576040517f08c379a00000000000000000000000000000000000000000000000000000000081526004016108ed906139b7565b60405180910390fd5b600c60008373ffffffffffffffffffffffffffffffffffffffff1673ffffffffffffffffffffffffffffffffffffffff16815260200190815260200160002054811161098157600c60008373ffffffffffffffffffffffffffffffffffffffff1673ffffffffffffffffffffffffffffffffffffffff16815260200190815260200160002054610983565b805b600c60008473ffffffffffffffffffffffffffffffffffffffff1673ffffffffffffffffffffffffffffffffffffffff1681526020019081526020016000208190555060006064826109d59190613a06565b905080600d60008573ffffffffffffffffffffffffffffffffffffffff1673ffffffffffffffffffffffffffffffffffffffff1681526020019081526020016000206000828254610a269190613a48565b925050819055505a600e60008573ffffffffffffffffffffffffffffffffffffffff1673ffffffffffffffffffffffffffffffffffffffff1681526020019081526020016000206000828254610a7c9190613a48565b92505081905550610a8d8383611a18565b610a96836112aa565b7f3d874470dba0fad010caa4b42a98890f3760e7f6cf8dbfe0db97a6a0f078031b83835a604051610ac993929190613a7c565b60405180910390a1505050565b600c6020528060005260406000206000915090505481565b610af6611a81565b600082118015610b0857506010548211155b610b47576040517f08c379a0000000000000000000000000000000000000000000000000000000008152600401610b3e906139b7565b60405180910390fd5b80600f600084815260200190815260200160002060006101000a81548173ffffffffffffffffffffffffffffffffffffffff021916908373ffffffffffffffffffffffffffffffffffffffff1602179055505050565b6000600880549050905090565b60105481565b600073ffffffffffffffffffffffffffffffffffffffff168273ffffffffffffffffffffffffffffffffffffffff1603610c225760006040517f64a0ae92000000000000000000000000000000000000000000000000000000008152600401610c199190613320565b60405180910390fd5b6000610c368383610c316119fe565b611b08565b90508373ffffffffffffffffffffffffffffffffffffffff168173ffffffffffffffffffffffffffffffffffffffff1614610cac578382826040517f64283d7b000000000000000000000000000000000000000000000000000000008152600401610ca393929190613ab3565b60405180910390fd5b50505050565b600d6020528060005260406000206000915090505481565b6000610cd583610e4e565b8210610d1a5782826040517fa57d13dc000000000000000000000000000000000000000000000000000000008152600401610d11929190613aea565b60405180910390fd5b600660008473ffffffffffffffffffffffffffffffffffffffff1673ffffffffffffffffffffffffffffffffffffffff168152602001908152602001600020600083815260200190815260200160002054905092915050565b600f6020528060005260406000206000915054906101000a900473ffffffffffffffffffffffffffffffffffffffff1681565b610dc18383836040518060200160405280600081525061103b565b505050565b6000610dd0610b9d565b8210610e16576000826040517fa57d13dc000000000000000000000000000000000000000000000000000000008152600401610e0d929190613aea565b60405180910390fd5b60088281548110610e2a57610e29613b13565b5b90600052602060002001549050919050565b6000610e4782611939565b9050919050565b60008073ffffffffffffffffffffffffffffffffffffffff168273ffffffffffffffffffffffffffffffffffffffff1603610ec15760006040517f89c62b64000000000000000000000000000000000000000000000000000000008152600401610eb89190613320565b60405180910390fd5b600360008373ffffffffffffffffffffffffffffffffffffffff1673ffffffffffffffffffffffffffffffffffffffff168152602001908152602001600020549050919050565b610f10611a81565b610f1a6000611c25565b565b6000601054600c60008473ffffffffffffffffffffffffffffffffffffffff1673ffffffffffffffffffffffffffffffffffffffff16815260200190815260200160002054149050919050565b6000600a60009054906101000a900473ffffffffffffffffffffffffffffffffffffffff16905090565b606060018054610fa2906138ce565b80601f0160208091040260200160405190810160405280929190818152602001828054610fce906138ce565b801561101b5780601f10610ff05761010080835404028352916020019161101b565b820191906000526020600020905b815481529060010190602001808311610ffe57829003601f168201915b5050505050905090565b6110376110306119fe565b8383611ceb565b5050565b611046848484610bb0565b61105a6110516119fe565b85858585611e5a565b50505050565b600e6020528060005260406000206000915090505481565b60606000601180549050831161108e5782611095565b6011805490505b905060008167ffffffffffffffff8111156110b3576110b2613507565b5b6040519080825280602002602001820160405280156110ec57816020015b6110d96130b6565b8152602001906001900390816110d15790505b50905060005b828110156111d0576011818154811061110e5761110d613b13565b5b90600052602060002090600502016040518060a00160405290816000820160009054906101000a900473ffffffffffffffffffffffffffffffffffffffff1673ffffffffffffffffffffffffffffffffffffffff1673ffffffffffffffffffffffffffffffffffffffff1681526020016001820154815260200160028201548152602001600382015481526020016004820154815250508282815181106111b8576111b7613b13565b5b602002602001018190525080806001019150506110f2565b508092505050919050565b601181815481106111eb57600080fd5b90600052602060002090600502016000915090508060000160009054906101000a900473ffffffffffffffffffffffffffffffffffffffff16908060010154908060020154908060030154908060040154905085565b606061124c82611939565b50600061125761200b565b9050600081511161127757604051806020016040528060008152506112a2565b8061128184612022565b604051602001611292929190613b7e565b6040516020818303038152906040525b915050919050565b600080600090506000601260008573ffffffffffffffffffffffffffffffffffffffff1673ffffffffffffffffffffffffffffffffffffffff1681526020019081526020016000205411806113815750600060118054905011801561138057508273ffffffffffffffffffffffffffffffffffffffff16601160008154811061133657611335613b13565b5b906000526020600020906005020160000160009054906101000a900473ffffffffffffffffffffffffffffffffffffffff1673ffffffffffffffffffffffffffffffffffffffff16145b5b156113cd57601260008473ffffffffffffffffffffffffffffffffffffffff1673ffffffffffffffffffffffffffffffffffffffff168152602001908152602001600020549150600190505b60006040518060a001604052808573ffffffffffffffffffffffffffffffffffffffff168152602001600c60008773ffffffffffffffffffffffffffffffffffffffff1673ffffffffffffffffffffffffffffffffffffffff168152602001908152602001600020548152602001600d60008773ffffffffffffffffffffffffffffffffffffffff1673ffffffffffffffffffffffffffffffffffffffff168152602001908152602001600020548152602001600e60008773ffffffffffffffffffffffffffffffffffffffff1673ffffffffffffffffffffffffffffffffffffffff168152602001908152602001600020548152602001428152509050811561156b5780601184815481106114e6576114e5613b13565b5b906000526020600020906005020160008201518160000160006101000a81548173ffffffffffffffffffffffffffffffffffffffff021916908373ffffffffffffffffffffffffffffffffffffffff1602179055506020820151816001015560408201518160020155606082015181600301556080820151816004015590505061165e565b601181908060018154018082558091505060019003906000526020600020906005020160009091909190915060008201518160000160006101000a81548173ffffffffffffffffffffffffffffffffffffffff021916908373ffffffffffffffffffffffffffffffffffffffff160217905550602082015181600101556040820151816002015560608201518160030155608082015181600401555050600160118054905061161a9190613ba2565b601260008673ffffffffffffffffffffffffffffffffffffffff1673ffffffffffffffffffffffffffffffffffffffff168152602001908152602001600020819055505b6116666120f0565b7f5c874adf9d1c93ab636130bb7e727993f1d6a3d33d1ffd925556815d0eec230884600c60008773ffffffffffffffffffffffffffffffffffffffff1673ffffffffffffffffffffffffffffffffffffffff16815260200190815260200160002054600d60008873ffffffffffffffffffffffffffffffffffffffff1673ffffffffffffffffffffffffffffffffffffffff1681526020019081526020016000205460405161171793929190613a7c565b60405180910390a150505050565b60126020528060005260406000206000915090505481565b6000600560008473ffffffffffffffffffffffffffffffffffffffff1673ffffffffffffffffffffffffffffffffffffffff16815260200190815260200160002060008373ffffffffffffffffffffffffffffffffffffffff1673ffffffffffffffffffffffffffffffffffffffff16815260200190815260200160002060009054906101000a900460ff16905092915050565b6117d9611a81565b600073ffffffffffffffffffffffffffffffffffffffff168173ffffffffffffffffffffffffffffffffffffffff160361184b5760006040517f1e4fbdf70000000000000000000000000000000000000000000000000000000081526004016118429190613320565b60405180910390fd5b61185481611c25565b50565b60007f80ac58cd000000000000000000000000000000000000000000000000000000007bffffffffffffffffffffffffffffffffffffffffffffffffffffffff1916827bffffffffffffffffffffffffffffffffffffffffffffffffffffffff1916148061192257507f5b5e139f000000000000000000000000000000000000000000000000000000007bffffffffffffffffffffffffffffffffffffffffffffffffffffffff1916827bffffffffffffffffffffffffffffffffffffffffffffffffffffffff1916145b806119325750611931826125cf565b5b9050919050565b60008061194583612639565b9050600073ffffffffffffffffffffffffffffffffffffffff168173ffffffffffffffffffffffffffffffffffffffff16036119b857826040517f7e2732890000000000000000000000000000000000000000000000000000000081526004016119af91906133e3565b60405180910390fd5b80915050919050565b60006004600083815260200190815260200160002060009054906101000a900473ffffffffffffffffffffffffffffffffffffffff169050919050565b600033905090565b611a138383836001612676565b505050565b600b6000815480929190611a2b90613bd6565b91905055506000600b549050611a41838261283b565b7f3a8a89b59a31c39a36febecb987e0657ab7b7c73b60ebacb44dcb9886c2d5c8a838284604051611a7493929190613a7c565b60405180910390a1505050565b611a896119fe565b73ffffffffffffffffffffffffffffffffffffffff16611aa7610f69565b73ffffffffffffffffffffffffffffffffffffffff1614611b0657611aca6119fe565b6040517f118cdaa7000000000000000000000000000000000000000000000000000000008152600401611afd9190613320565b60405180910390fd5b565b600080611b16858585612934565b9050600073ffffffffffffffffffffffffffffffffffffffff168173ffffffffffffffffffffffffffffffffffffffff1603611b5a57611b5584612b4e565b611b99565b8473ffffffffffffffffffffffffffffffffffffffff168173ffffffffffffffffffffffffffffffffffffffff1614611b9857611b978185612b97565b5b5b600073ffffffffffffffffffffffffffffffffffffffff168573ffffffffffffffffffffffffffffffffffffffff1603611bdb57611bd684612c82565b611c1a565b8473ffffffffffffffffffffffffffffffffffffffff168173ffffffffffffffffffffffffffffffffffffffff1614611c1957611c188585612d53565b5b5b809150509392505050565b6000600a60009054906101000a900473ffffffffffffffffffffffffffffffffffffffff16905081600a60006101000a81548173ffffffffffffffffffffffffffffffffffffffff021916908373ffffffffffffffffffffffffffffffffffffffff1602179055508173ffffffffffffffffffffffffffffffffffffffff168173ffffffffffffffffffffffffffffffffffffffff167f8be0079c531659141344cd1fd0a4f28419497f9722a3daafe3b4186f6b6457e060405160405180910390a35050565b600073ffffffffffffffffffffffffffffffffffffffff168273ffffffffffffffffffffffffffffffffffffffff1603611d5c57816040517f5b08ba18000000000000000000000000000000000000000000000000000000008152600401611d539190613320565b60405180910390fd5b80600560008573ffffffffffffffffffffffffffffffffffffffff1673ffffffffffffffffffffffffffffffffffffffff16815260200190815260200160002060008473ffffffffffffffffffffffffffffffffffffffff1673ffffffffffffffffffffffffffffffffffffffff16815260200190815260200160002060006101000a81548160ff0219169083151502179055508173ffffffffffffffffffffffffffffffffffffffff168373ffffffffffffffffffffffffffffffffffffffff167f17307eab39ab6107e8899845ad3d59bd9653f200f220920489ca2b5937696c3183604051611e4d91906131af565b60405180910390a3505050565b60008373ffffffffffffffffffffffffffffffffffffffff163b1115612004578273ffffffffffffffffffffffffffffffffffffffff1663150b7a02868685856040518563ffffffff1660e01b8152600401611eb99493929190613c73565b6020604051808303816000875af1925050508015611ef557506040513d601f19601f82011682018060405250810190611ef29190613cd4565b60015b611f79573d8060008114611f25576040519150601f19603f3d011682016040523d82523d6000602084013e611f2a565b606091505b506000815103611f7157836040517f64a0ae92000000000000000000000000000000000000000000000000000000008152600401611f689190613320565b60405180910390fd5b805181602001fd5b63150b7a0260e01b7bffffffffffffffffffffffffffffffffffffffffffffffffffffffff1916817bffffffffffffffffffffffffffffffffffffffffffffffffffffffff19161461200257836040517f64a0ae92000000000000000000000000000000000000000000000000000000008152600401611ff99190613320565b60405180910390fd5b505b5050505050565b606060405180602001604052806000815250905090565b60606000600161203184612dde565b01905060008167ffffffffffffffff8111156120505761204f613507565b5b6040519080825280601f01601f1916602001820160405280156120825781602001600182028036833780820191505090505b509050600082602001820190505b6001156120e5578080600190039150507f3031323334353637383961626364656600000000000000000000000000000000600a86061a8153600a85816120d9576120d8613d01565b5b04945060008503612090575b819350505050919050565b6000601180549050905060005b60018261210a9190613ba2565b8110156125cb5760005b600182846121229190613ba2565b61212c9190613ba2565b8110156125bd5760116001826121429190613a48565b8154811061215357612152613b13565b5b9060005260206000209060050201600101546011828154811061217957612178613b13565b5b906000526020600020906005020160010154108061224d575060116001826121a19190613a48565b815481106121b2576121b1613b13565b5b906000526020600020906005020160010154601182815481106121d8576121d7613b13565b5b90600052602060002090600502016001015414801561224c575060116001826122019190613a48565b8154811061221257612211613b13565b5b9060005260206000209060050201600201546011828154811061223857612237613b13565b5b906000526020600020906005020160020154105b5b156125b05760006011828154811061226857612267613b13565b5b90600052602060002090600502016040518060a00160405290816000820160009054906101000a900473ffffffffffffffffffffffffffffffffffffffff1673ffffffffffffffffffffffffffffffffffffffff1673ffffffffffffffffffffffffffffffffffffffff168152602001600182015481526020016002820154815260200160038201548152602001600482015481525050905060116001836123109190613a48565b8154811061232157612320613b13565b5b90600052602060002090600502016011838154811061234357612342613b13565b5b90600052602060002090600502016000820160009054906101000a900473ffffffffffffffffffffffffffffffffffffffff168160000160006101000a81548173ffffffffffffffffffffffffffffffffffffffff021916908373ffffffffffffffffffffffffffffffffffffffff160217905550600182015481600101556002820154816002015560038201548160030155600482015481600401559050508060116001846123f39190613a48565b8154811061240457612403613b13565b5b906000526020600020906005020160008201518160000160006101000a81548173ffffffffffffffffffffffffffffffffffffffff021916908373ffffffffffffffffffffffffffffffffffffffff1602179055506020820151816001015560408201518160020155606082015181600301556080820151816004015590505081601260006011858154811061249d5761249c613b13565b5b906000526020600020906005020160000160009054906101000a900473ffffffffffffffffffffffffffffffffffffffff1673ffffffffffffffffffffffffffffffffffffffff1673ffffffffffffffffffffffffffffffffffffffff1681526020019081526020016000208190555060018261251a9190613a48565b60126000601160018661252d9190613a48565b8154811061253e5761253d613b13565b5b906000526020600020906005020160000160009054906101000a900473ffffffffffffffffffffffffffffffffffffffff1673ffffffffffffffffffffffffffffffffffffffff1673ffffffffffffffffffffffffffffffffffffffff16815260200190815260200160002081905550505b8080600101915050612114565b5080806001019150506120fd565b5050565b60007f01ffc9a7000000000000000000000000000000000000000000000000000000007bffffffffffffffffffffffffffffffffffffffffffffffffffffffff1916827bffffffffffffffffffffffffffffffffffffffffffffffffffffffff1916149050919050565b60006002600083815260200190815260200160002060009054906101000a900473ffffffffffffffffffffffffffffffffffffffff169050919050565b80806126af5750600073ffffffffffffffffffffffffffffffffffffffff168273ffffffffffffffffffffffffffffffffffffffff1614155b156127e35760006126bf84611939565b9050600073ffffffffffffffffffffffffffffffffffffffff168373ffffffffffffffffffffffffffffffffffffffff161415801561272a57508273ffffffffffffffffffffffffffffffffffffffff168173ffffffffffffffffffffffffffffffffffffffff1614155b801561273d575061273b818461173d565b155b1561277f57826040517fa9fbf51f0000000000000000000000000000000000000000000000000000000081526004016127769190613320565b60405180910390fd5b81156127e157838573ffffffffffffffffffffffffffffffffffffffff168273ffffffffffffffffffffffffffffffffffffffff167f8c5be1e5ebec7d5bd14f71427d1e84f3dd0314c0f7b2291e5b200ac8c7c3b92560405160405180910390a45b505b836004600085815260200190815260200160002060006101000a81548173ffffffffffffffffffffffffffffffffffffffff021916908373ffffffffffffffffffffffffffffffffffffffff16021790555050505050565b600073ffffffffffffffffffffffffffffffffffffffff168273ffffffffffffffffffffffffffffffffffffffff16036128ad5760006040517f64a0ae920000000000000000000000000000000000000000000000000000000081526004016128a49190613320565b60405180910390fd5b60006128bb83836000611b08565b9050600073ffffffffffffffffffffffffffffffffffffffff168173ffffffffffffffffffffffffffffffffffffffff161461292f5760006040517f73c6ac6e0000000000000000000000000000000000000000000000000000000081526004016129269190613320565b60405180910390fd5b505050565b60008061294084612639565b9050600073ffffffffffffffffffffffffffffffffffffffff168373ffffffffffffffffffffffffffffffffffffffff161461298257612981818486612f31565b5b600073ffffffffffffffffffffffffffffffffffffffff168173ffffffffffffffffffffffffffffffffffffffff1614612a13576129c4600085600080612676565b6001600360008373ffffffffffffffffffffffffffffffffffffffff1673ffffffffffffffffffffffffffffffffffffffff168152602001908152602001600020600082825403925050819055505b600073ffffffffffffffffffffffffffffffffffffffff168573ffffffffffffffffffffffffffffffffffffffff1614612a96576001600360008773ffffffffffffffffffffffffffffffffffffffff1673ffffffffffffffffffffffffffffffffffffffff168152602001908152602001600020600082825401925050819055505b846002600086815260200190815260200160002060006101000a81548173ffffffffffffffffffffffffffffffffffffffff021916908373ffffffffffffffffffffffffffffffffffffffff160217905550838573ffffffffffffffffffffffffffffffffffffffff168273ffffffffffffffffffffffffffffffffffffffff167fddf252ad1be2c89b69c2b068fc378daa952ba7f163c4a11628f55a4df523b3ef60405160405180910390a4809150509392505050565b6008805490506009600083815260200190815260200160002081905550600881908060018154018082558091505060019003906000526020600020016000909190919091505550565b6000612ba283610e4e565b90506000600760008481526020019081526020016000205490506000600660008673ffffffffffffffffffffffffffffffffffffffff1673ffffffffffffffffffffffffffffffffffffffff1681526020019081526020016000209050828214612c4e5760008160008581526020019081526020016000205490508082600085815260200190815260200160002081905550826007600083815260200190815260200160002081905550505b6007600085815260200190815260200160002060009055806000848152602001908152602001600020600090555050505050565b60006001600880549050612c969190613ba2565b9050600060096000848152602001908152602001600020549050600060088381548110612cc657612cc5613b13565b5b906000526020600020015490508060088381548110612ce857612ce7613b13565b5b906000526020600020018190555081600960008381526020019081526020016000208190555060096000858152602001908152602001600020600090556008805480612d3757612d36613d30565b5b6001900381819060005260206000200160009055905550505050565b60006001612d6084610e4e565b612d6a9190613ba2565b905081600660008573ffffffffffffffffffffffffffffffffffffffff1673ffffffffffffffffffffffffffffffffffffffff168152602001908152602001600020600083815260200190815260200160002081905550806007600084815260200190815260200160002081905550505050565b600080600090507a184f03e93ff9f4daa797ed6e38ed64bf6a1f0100000000000000008310612e3c577a184f03e93ff9f4daa797ed6e38ed64bf6a1f0100000000000000008381612e3257612e31613d01565b5b0492506040810190505b6d04ee2d6d415b85acef81000000008310612e79576d04ee2d6d415b85acef81000000008381612e6f57612e6e613d01565b5b0492506020810190505b662386f26fc100008310612ea857662386f26fc100008381612e9e57612e9d613d01565b5b0492506010810190505b6305f5e1008310612ed1576305f5e1008381612ec757612ec6613d01565b5b0492506008810190505b6127108310612ef6576127108381612eec57612eeb613d01565b5b0492506004810190505b60648310612f195760648381612f0f57612f0e613d01565b5b0492506002810190505b600a8310612f28576001810190505b80915050919050565b612f3c838383612ff5565b612ff057600073ffffffffffffffffffffffffffffffffffffffff168373ffffffffffffffffffffffffffffffffffffffff1603612fb157806040517f7e273289000000000000000000000000000000000000000000000000000000008152600401612fa891906133e3565b60405180910390fd5b81816040517f177e802f000000000000000000000000000000000000000000000000000000008152600401612fe7929190613aea565b60405180910390fd5b505050565b60008073ffffffffffffffffffffffffffffffffffffffff168373ffffffffffffffffffffffffffffffffffffffff16141580156130ad57508273ffffffffffffffffffffffffffffffffffffffff168473ffffffffffffffffffffffffffffffffffffffff16148061306e575061306d848461173d565b5b806130ac57508273ffffffffffffffffffffffffffffffffffffffff16613094836119c1565b73ffffffffffffffffffffffffffffffffffffffff16145b5b90509392505050565b6040518060a00160405280600073ffffffffffffffffffffffffffffffffffffffff168152602001600081526020016000815260200160008152602001600081525090565b6000604051905090565b600080fd5b600080fd5b60007fffffffff0000000000000000000000000000000000000000000000000000000082169050919050565b6131448161310f565b811461314f57600080fd5b50565b6000813590506131618161313b565b92915050565b60006020828403121561317d5761317c613105565b5b600061318b84828501613152565b91505092915050565b60008115159050919050565b6131a981613194565b82525050565b60006020820190506131c460008301846131a0565b92915050565b600081519050919050565b600082825260208201905092915050565b60005b838110156132045780820151818401526020810190506131e9565b60008484015250505050565b6000601f19601f8301169050919050565b600061322c826131ca565b61323681856131d5565b93506132468185602086016131e6565b61324f81613210565b840191505092915050565b600060208201905081810360008301526132748184613221565b905092915050565b6000819050919050565b61328f8161327c565b811461329a57600080fd5b50565b6000813590506132ac81613286565b92915050565b6000602082840312156132c8576132c7613105565b5b60006132d68482850161329d565b91505092915050565b600073ffffffffffffffffffffffffffffffffffffffff82169050919050565b600061330a826132df565b9050919050565b61331a816132ff565b82525050565b60006020820190506133356000830184613311565b92915050565b613344816132ff565b811461334f57600080fd5b50565b6000813590506133618161333b565b92915050565b6000806040838503121561337e5761337d613105565b5b600061338c85828601613352565b925050602061339d8582860161329d565b9150509250929050565b6000602082840312156133bd576133bc613105565b5b60006133cb84828501613352565b91505092915050565b6133dd8161327c565b82525050565b60006020820190506133f860008301846133d4565b92915050565b6000806040838503121561341557613414613105565b5b60006134238582860161329d565b925050602061343485828601613352565b9150509250929050565b60008060006060848603121561345757613456613105565b5b600061346586828701613352565b935050602061347686828701613352565b92505060406134878682870161329d565b9150509250925092565b61349a81613194565b81146134a557600080fd5b50565b6000813590506134b781613491565b92915050565b600080604083850312156134d4576134d3613105565b5b60006134e285828601613352565b92505060206134f3858286016134a8565b9150509250929050565b600080fd5b600080fd5b7f4e487b7100000000000000000000000000000000000000000000000000000000600052604160045260246000fd5b61353f82613210565b810181811067ffffffffffffffff8211171561355e5761355d613507565b5b80604052505050565b60006135716130fb565b905061357d8282613536565b919050565b600067ffffffffffffffff82111561359d5761359c613507565b5b6135a682613210565b9050602081019050919050565b82818337600083830152505050565b60006135d56135d084613582565b613567565b9050828152602081018484840111156135f1576135f0613502565b5b6135fc8482856135b3565b509392505050565b600082601f830112613619576136186134fd565b5b81356136298482602086016135c2565b91505092915050565b6000806000806080858703121561364c5761364b613105565b5b600061365a87828801613352565b945050602061366b87828801613352565b935050604061367c8782880161329d565b925050606085013567ffffffffffffffff81111561369d5761369c61310a565b5b6136a987828801613604565b91505092959194509250565b600081519050919050565b600082825260208201905092915050565b6000819050602082019050919050565b6136ea816132ff565b82525050565b6136f98161327c565b82525050565b60a08201600082015161371560008501826136e1565b50602082015161372860208501826136f0565b50604082015161373b60408501826136f0565b50606082015161374e60608501826136f0565b50608082015161376160808501826136f0565b50505050565b600061377383836136ff565b60a08301905092915050565b6000602082019050919050565b6000613797826136b5565b6137a181856136c0565b93506137ac836136d1565b8060005b838110156137dd5781516137c48882613767565b97506137cf8361377f565b9250506001810190506137b0565b5085935050505092915050565b60006020820190508181036000830152613804818461378c565b905092915050565b600060a0820190506138216000830188613311565b61382e60208301876133d4565b61383b60408301866133d4565b61384860608301856133d4565b61385560808301846133d4565b9695505050505050565b6000806040838503121561387657613875613105565b5b600061388485828601613352565b925050602061389585828601613352565b9150509250929050565b7f4e487b7100000000000000000000000000000000000000000000000000000000600052602260045260246000fd5b600060028204905060018216806138e657607f821691505b6020821081036138f9576138f861389f565b5b50919050565b7f4e6f7420617574686f72697a6564206c6576656c20636f6e7472616374000000600082015250565b6000613935601d836131d5565b9150613940826138ff565b602082019050919050565b6000602082019050818103600083015261396481613928565b9050919050565b7f496e76616c6964206c6576656c00000000000000000000000000000000000000600082015250565b60006139a1600d836131d5565b91506139ac8261396b565b602082019050919050565b600060208201905081810360008301526139d081613994565b9050919050565b7f4e487b7100000000000000000000000000000000000000000000000000000000600052601160045260246000fd5b6000613a118261327c565b9150613a1c8361327c565b9250828202613a2a8161327c565b91508282048414831517613a4157613a406139d7565b5b5092915050565b6000613a538261327c565b9150613a5e8361327c565b9250828201905080821115613a7657613a756139d7565b5b92915050565b6000606082019050613a916000830186613311565b613a9e60208301856133d4565b613aab60408301846133d4565b949350505050565b6000606082019050613ac86000830186613311565b613ad560208301856133d4565b613ae26040830184613311565b949350505050565b6000604082019050613aff6000830185613311565b613b0c60208301846133d4565b9392505050565b7f4e487b7100000000000000000000000000000000000000000000000000000000600052603260045260246000fd5b600081905092915050565b6000613b58826131ca565b613b628185613b42565b9350613b728185602086016131e6565b80840191505092915050565b6000613b8a8285613b4d565b9150613b968284613b4d565b91508190509392505050565b6000613bad8261327c565b9150613bb88361327c565b9250828203905081811115613bd057613bcf6139d7565b5b92915050565b6000613be18261327c565b91507fffffffffffffffffffffffffffffffffffffffffffffffffffffffffffffffff8203613c1357613c126139d7565b5b600182019050919050565b600081519050919050565b600082825260208201905092915050565b6000613c4582613c1e565b613c4f8185613c29565b9350613c5f8185602086016131e6565b613c6881613210565b840191505092915050565b6000608082019050613c886000830187613311565b613c956020830186613311565b613ca260408301856133d4565b8181036060830152613cb48184613c3a565b905095945050505050565b600081519050613cce8161313b565b92915050565b600060208284031215613cea57613ce9613105565b5b6000613cf884828501613cbf565b91505092915050565b7f4e487b7100000000000000000000000000000000000000000000000000000000600052601260045260246000fd5b7f4e487b7100000000000000000000000000000000000000000000000000000000600052603160045260246000fdfea164736f6c634300081c000a",
  "linkReferences": {},
  "deployedLinkReferences": {}
}